{
  "contractName": "CanHire",
  "abi": [
    {
      "constant": true,
      "inputs": [],
      "name": "active",
      "outputs": [
        {
          "name": "",
          "type": "bool"
        }
      ],
      "payable": false,
      "stateMutability": "view",
      "type": "function",
      "signature": "0x02fb0c5e"
    },
    {
      "constant": true,
      "inputs": [
        {
          "name": "",
          "type": "uint256"
        }
      ],
      "name": "posts",
      "outputs": [
        {
          "name": "id",
          "type": "uint256"
        },
        {
          "name": "owner",
          "type": "address"
        },
        {
          "name": "status",
          "type": "uint8"
        },
        {
          "name": "bounty",
          "type": "uint256"
        },
        {
          "name": "cost",
          "type": "uint256"
        },
        {
          "name": "honeyPot",
          "type": "uint256"
        },
        {
          "name": "candidateSelected",
          "type": "uint256"
        }
      ],
      "payable": false,
      "stateMutability": "view",
      "type": "function",
      "signature": "0x0b1e7f83"
    },
    {
      "constant": true,
      "inputs": [],
      "name": "canYaCoin",
      "outputs": [
        {
          "name": "",
          "type": "address"
        }
      ],
      "payable": false,
      "stateMutability": "view",
      "type": "function",
      "signature": "0x0b32ca72"
    },
    {
      "constant": true,
      "inputs": [],
      "name": "cancelFee",
      "outputs": [
        {
          "name": "",
          "type": "uint256"
        }
      ],
      "payable": false,
      "stateMutability": "view",
      "type": "function",
      "signature": "0x14025dcd"
    },
    {
      "constant": true,
      "inputs": [],
      "name": "closeFee",
      "outputs": [
        {
          "name": "",
          "type": "uint256"
        }
      ],
      "payable": false,
      "stateMutability": "view",
      "type": "function",
      "signature": "0x70492cbf"
    },
    {
      "constant": false,
      "inputs": [],
      "name": "renounceOwnership",
      "outputs": [],
      "payable": false,
      "stateMutability": "nonpayable",
      "type": "function",
      "signature": "0x715018a6"
    },
    {
      "constant": true,
      "inputs": [],
      "name": "owner",
      "outputs": [
        {
          "name": "",
          "type": "address"
        }
      ],
      "payable": false,
      "stateMutability": "view",
      "type": "function",
      "signature": "0x8da5cb5b"
    },
    {
      "constant": true,
      "inputs": [],
      "name": "escrow",
      "outputs": [
        {
          "name": "",
          "type": "address"
        }
      ],
      "payable": false,
      "stateMutability": "view",
      "type": "function",
      "signature": "0xe2fdcc17"
    },
    {
      "constant": true,
      "inputs": [],
      "name": "numPosts",
      "outputs": [
        {
          "name": "",
          "type": "uint256"
        }
      ],
      "payable": false,
      "stateMutability": "view",
      "type": "function",
      "signature": "0xec7331e9"
    },
    {
      "constant": false,
      "inputs": [
        {
          "name": "_newOwner",
          "type": "address"
        }
      ],
      "name": "transferOwnership",
      "outputs": [],
      "payable": false,
      "stateMutability": "nonpayable",
      "type": "function",
      "signature": "0xf2fde38b"
    },
    {
      "inputs": [
        {
          "name": "_canYaCoin",
          "type": "address"
        },
        {
          "name": "_escrow",
          "type": "address"
        }
      ],
      "payable": false,
      "stateMutability": "nonpayable",
      "type": "constructor",
      "signature": "constructor"
    },
    {
      "anonymous": false,
      "inputs": [
        {
          "indexed": false,
          "name": "postId",
          "type": "uint256"
        }
      ],
      "name": "PostCreated",
      "type": "event",
      "signature": "0x7083e11102808886115763619dc7e7c3f40b0b6dfd04262b94ea7de82d917ece"
    },
    {
      "anonymous": false,
      "inputs": [
        {
          "indexed": false,
          "name": "candidateId",
          "type": "uint256"
        }
      ],
      "name": "CandidateRecommended",
      "type": "event",
      "signature": "0x69f78033c8209029e76adfe04965ee0370ac60f49c2a1e87a474571497ec1471"
    },
    {
      "anonymous": false,
      "inputs": [
        {
          "indexed": false,
          "name": "escrowAddress",
          "type": "address"
        }
      ],
      "name": "EscrowUpdated",
      "type": "event",
      "signature": "0x43ab431641dd45dd0661cad4b820e826d7c526af92e3121e1242d721f82ab3ad"
    },
    {
      "anonymous": false,
      "inputs": [
        {
          "indexed": false,
          "name": "status",
          "type": "uint8"
        }
      ],
      "name": "PostStatusUpdate",
      "type": "event",
      "signature": "0xb4103c36255d5c667daf96771c510f51dda75d8d4092d8cb143b36f727ea48f4"
    },
    {
      "anonymous": false,
      "inputs": [
        {
          "indexed": false,
          "name": "profit",
          "type": "uint256"
        }
      ],
      "name": "ProfitsExtracted",
      "type": "event",
      "signature": "0x3100297ce0690287a6fbc4cacbe364a32c3c5a3136155777eb7707650995f363"
    },
    {
      "anonymous": false,
      "inputs": [
        {
          "indexed": false,
          "name": "postId",
          "type": "uint256"
        }
      ],
      "name": "GetPostId",
      "type": "event",
      "signature": "0xcf61eb20c2e79a332c76a2c2d888ad5687a37522706934bb8e69a51ea94457ab"
    },
    {
      "anonymous": false,
      "inputs": [
        {
          "indexed": false,
          "name": "cost",
          "type": "uint256"
        }
      ],
      "name": "GetRefund",
      "type": "event",
      "signature": "0x5c519f40b02c80f141c9c828282cfe4f7a9760eecc74db1a2e566645e43ff284"
    },
    {
      "anonymous": false,
      "inputs": [
        {
          "indexed": false,
          "name": "recommender",
          "type": "address"
        },
        {
          "indexed": false,
          "name": "postId",
          "type": "uint256"
        }
      ],
      "name": "UpdateContribution",
      "type": "event",
      "signature": "0x67638e23405e616d4bb3b9a1b8db559a83ee432b824ab18c5ac438d99f617d83"
    },
    {
      "anonymous": false,
      "inputs": [
        {
          "indexed": true,
          "name": "previousOwner",
          "type": "address"
        }
      ],
      "name": "OwnershipRenounced",
      "type": "event",
      "signature": "0xf8df31144d9c2f0f6b59d69b8b98abd5459d07f2742c4df920b25aae33c64820"
    },
    {
      "anonymous": false,
      "inputs": [
        {
          "indexed": true,
          "name": "previousOwner",
          "type": "address"
        },
        {
          "indexed": true,
          "name": "newOwner",
          "type": "address"
        }
      ],
      "name": "OwnershipTransferred",
      "type": "event",
      "signature": "0x8be0079c531659141344cd1fd0a4f28419497f9722a3daafe3b4186f6b6457e0"
    },
    {
      "constant": true,
      "inputs": [
        {
          "name": "postId",
          "type": "uint256"
        }
      ],
      "name": "getRecommenders",
      "outputs": [
        {
          "name": "recommenderList",
          "type": "address[]"
        }
      ],
      "payable": false,
      "stateMutability": "view",
      "type": "function",
      "signature": "0x1ce0544d"
    },
    {
      "constant": false,
      "inputs": [
        {
          "name": "isActive",
          "type": "bool"
        }
      ],
      "name": "setActive",
      "outputs": [],
      "payable": false,
      "stateMutability": "nonpayable",
      "type": "function",
      "signature": "0xacec338a"
    },
    {
      "constant": false,
      "inputs": [
        {
          "name": "_cancelFee",
          "type": "uint256"
        }
      ],
      "name": "setCancelFee",
      "outputs": [],
      "payable": false,
      "stateMutability": "nonpayable",
      "type": "function",
      "signature": "0xc2fffd6b"
    },
    {
      "constant": false,
      "inputs": [
        {
          "name": "_closeFee",
          "type": "uint256"
        }
      ],
      "name": "setCloseFee",
      "outputs": [],
      "payable": false,
      "stateMutability": "nonpayable",
      "type": "function",
      "signature": "0xa68b9657"
    },
    {
      "constant": false,
      "inputs": [
        {
          "name": "newEscrow",
          "type": "address"
        }
      ],
      "name": "setEscrow",
      "outputs": [],
      "payable": false,
      "stateMutability": "nonpayable",
      "type": "function",
      "signature": "0xc10c3546"
    },
    {
      "constant": false,
      "inputs": [
        {
          "name": "uniqueId",
          "type": "string"
        },
        {
          "name": "_bounty",
          "type": "uint256"
        },
        {
          "name": "_cost",
          "type": "uint256"
        }
      ],
      "name": "addPost",
      "outputs": [],
      "payable": false,
      "stateMutability": "nonpayable",
      "type": "function",
      "signature": "0x0599ecd5"
    },
    {
      "constant": false,
      "inputs": [
        {
          "name": "postId",
          "type": "uint256"
        }
      ],
      "name": "cancelPost",
      "outputs": [],
      "payable": false,
      "stateMutability": "nonpayable",
      "type": "function",
      "signature": "0x8bc4f67f"
    },
    {
      "constant": false,
      "inputs": [
        {
          "name": "postId",
          "type": "uint256"
        }
      ],
      "name": "getRefund",
      "outputs": [],
      "payable": false,
      "stateMutability": "nonpayable",
      "type": "function",
      "signature": "0xd2f0be99"
    },
    {
      "constant": false,
      "inputs": [
        {
          "name": "postId",
          "type": "uint256"
        },
        {
          "name": "candidateId",
          "type": "uint256"
        }
      ],
      "name": "closePost",
      "outputs": [],
      "payable": false,
      "stateMutability": "nonpayable",
      "type": "function",
      "signature": "0xc21d7a4e"
    },
    {
      "constant": false,
      "inputs": [
        {
          "name": "uniqueCandidateId",
          "type": "string"
        },
        {
          "name": "postId",
          "type": "uint256"
        }
      ],
      "name": "recommend",
      "outputs": [],
      "payable": false,
      "stateMutability": "nonpayable",
      "type": "function",
      "signature": "0x62b711df"
    },
    {
      "constant": false,
      "inputs": [
        {
          "name": "_to",
          "type": "address"
        },
        {
          "name": "_amount",
          "type": "uint256"
        }
      ],
      "name": "extractProfits",
      "outputs": [],
      "payable": false,
      "stateMutability": "nonpayable",
      "type": "function",
      "signature": "0xd956931d"
    },
    {
      "constant": true,
      "inputs": [
        {
          "name": "uniqueId",
          "type": "string"
        }
      ],
      "name": "getId",
      "outputs": [
        {
          "name": "postId",
          "type": "uint256"
        }
      ],
      "payable": false,
      "stateMutability": "view",
      "type": "function",
      "signature": "0xbee51f3b"
    },
    {
      "constant": true,
      "inputs": [
        {
          "name": "uniqueCandidateId",
          "type": "string"
        },
        {
          "name": "postId",
          "type": "uint256"
        }
      ],
      "name": "getCandidateId",
      "outputs": [
        {
          "name": "candidateId",
          "type": "uint256"
        }
      ],
      "payable": false,
      "stateMutability": "view",
      "type": "function",
      "signature": "0xf552c226"
    },
    {
      "constant": true,
      "inputs": [
        {
          "name": "postId",
          "type": "uint256"
        }
      ],
      "name": "getNumCandidates",
      "outputs": [
        {
          "name": "numCandidates",
          "type": "uint256"
        }
      ],
      "payable": false,
      "stateMutability": "view",
      "type": "function",
      "signature": "0x452e0ff2"
    },
    {
      "constant": true,
      "inputs": [
        {
          "name": "postId",
          "type": "uint256"
        }
      ],
      "name": "checkContribution",
      "outputs": [
        {
          "name": "",
          "type": "uint256"
        }
      ],
      "payable": false,
      "stateMutability": "view",
      "type": "function",
      "signature": "0x6a49f2b4"
    }
  ],
  "bytecode": "0x60806040526001600655600160085560016009553480156200002057600080fd5b5060405160408062002fe8833981018060405281019080805190602001909291908051906020019092919050505062000058620002aa565b336000806101000a81548173ffffffffffffffffffffffffffffffffffffffff021916908373ffffffffffffffffffffffffffffffffffffffff16021790555082600160006101000a81548173ffffffffffffffffffffffffffffffffffffffff021916908373ffffffffffffffffffffffffffffffffffffffff16021790555081600260006101000a81548173ffffffffffffffffffffffffffffffffffffffff021916908373ffffffffffffffffffffffffffffffffffffffff16021790555062000135600162000231640100000000026401000000009004565b600381908060018154018082558091505090600182039060005260206000209060080201600090919290919091506000820151816000015560208201518160010160006101000a81548173ffffffffffffffffffffffffffffffffffffffff021916908373ffffffffffffffffffffffffffffffffffffffff16021790555060408201518160010160146101000a81548160ff02191690836003811115620001d957fe5b0217905550606082015181600201556080820151816003015560a0820151816004015560c0820151816005015560e08201518160060190805190602001906200022492919062000312565b50505050505050620003e7565b6000809054906101000a900473ffffffffffffffffffffffffffffffffffffffff1673ffffffffffffffffffffffffffffffffffffffff163373ffffffffffffffffffffffffffffffffffffffff161415156200028d57600080fd5b80600760006101000a81548160ff02191690831515021790555050565b6101006040519081016040528060008152602001600073ffffffffffffffffffffffffffffffffffffffff16815260200160006003811115620002e957fe5b815260200160008152602001600081526020016000815260200160008152602001606081525090565b8280548282559060005260206000209081019282156200038e579160200282015b828111156200038d5782518260006101000a81548173ffffffffffffffffffffffffffffffffffffffff021916908373ffffffffffffffffffffffffffffffffffffffff1602179055509160200191906001019062000333565b5b5090506200039d9190620003a1565b5090565b620003e491905b80821115620003e057600081816101000a81549073ffffffffffffffffffffffffffffffffffffffff021916905550600101620003a8565b5090565b90565b612bf180620003f76000396000f300608060405260043610610149576000357c0100000000000000000000000000000000000000000000000000000000900463ffffffff16806302fb0c5e1461014e5780630599ecd51461017d5780630b1e7f83146101fa5780630b32ca721461029f57806314025dcd146102f65780631ce0544d14610321578063452e0ff2146103a357806362b711df146103e45780636a49f2b41461045757806370492cbf14610498578063715018a6146104c35780638bc4f67f146104da5780638da5cb5b14610507578063a68b96571461055e578063acec338a1461058b578063bee51f3b146105ba578063c10c354614610637578063c21d7a4e1461067a578063c2fffd6b146106b1578063d2f0be99146106de578063d956931d1461070b578063e2fdcc1714610758578063ec7331e9146107af578063f2fde38b146107da578063f552c2261461081d575b600080fd5b34801561015a57600080fd5b506101636108a4565b604051808215151515815260200191505060405180910390f35b34801561018957600080fd5b506101f8600480360381019080803590602001908201803590602001908080601f016020809104026020016040519081016040528093929190818152602001838380828437820191505050505050919291929080359060200190929190803590602001909291905050506108b7565b005b34801561020657600080fd5b5061022560048036038101908080359060200190929190505050610d39565b604051808881526020018773ffffffffffffffffffffffffffffffffffffffff1673ffffffffffffffffffffffffffffffffffffffff16815260200186600381111561026d57fe5b60ff16815260200185815260200184815260200183815260200182815260200197505050505050505060405180910390f35b3480156102ab57600080fd5b506102b4610db7565b604051808273ffffffffffffffffffffffffffffffffffffffff1673ffffffffffffffffffffffffffffffffffffffff16815260200191505060405180910390f35b34801561030257600080fd5b5061030b610ddd565b6040518082815260200191505060405180910390f35b34801561032d57600080fd5b5061034c60048036038101908080359060200190929190505050610de3565b6040518080602001828103825283818151815260200191508051906020019060200280838360005b8381101561038f578082015181840152602081019050610374565b505050509050019250505060405180910390f35b3480156103af57600080fd5b506103ce60048036038101908080359060200190929190505050610e91565b6040518082815260200191505060405180910390f35b3480156103f057600080fd5b50610455600480360381019080803590602001908201803590602001908080601f016020809104026020016040519081016040528093929190818152602001838380828437820191505050505050919291929080359060200190929190505050610ed1565b005b34801561046357600080fd5b506104826004803603810190808035906020019092919050505061148c565b6040518082815260200191505060405180910390f35b3480156104a457600080fd5b506104ad6114e6565b6040518082815260200191505060405180910390f35b3480156104cf57600080fd5b506104d86114ec565b005b3480156104e657600080fd5b50610505600480360381019080803590602001909291905050506115ee565b005b34801561051357600080fd5b5061051c6119df565b604051808273ffffffffffffffffffffffffffffffffffffffff1673ffffffffffffffffffffffffffffffffffffffff16815260200191505060405180910390f35b34801561056a57600080fd5b5061058960048036038101908080359060200190929190505050611a04565b005b34801561059757600080fd5b506105b8600480360381019080803515159060200190929190505050611a69565b005b3480156105c657600080fd5b50610621600480360381019080803590602001908201803590602001908080601f0160208091040260200160405190810160405280939291908181526020018383808284378201915050505050509192919290505050611ae1565b6040518082815260200191505060405180910390f35b34801561064357600080fd5b50610678600480360381019080803573ffffffffffffffffffffffffffffffffffffffff169060200190929190505050611b56565b005b34801561068657600080fd5b506106af6004803603810190808035906020019092919080359060200190929190505050611c58565b005b3480156106bd57600080fd5b506106dc60048036038101908080359060200190929190505050612107565b005b3480156106ea57600080fd5b506107096004803603810190808035906020019092919050505061216c565b005b34801561071757600080fd5b50610756600480360381019080803573ffffffffffffffffffffffffffffffffffffffff169060200190929190803590602001909291905050506124fe565b005b34801561076457600080fd5b5061076d6127ed565b604051808273ffffffffffffffffffffffffffffffffffffffff1673ffffffffffffffffffffffffffffffffffffffff16815260200191505060405180910390f35b3480156107bb57600080fd5b506107c4612813565b6040518082815260200191505060405180910390f35b3480156107e657600080fd5b5061081b600480360381019080803573ffffffffffffffffffffffffffffffffffffffff169060200190929190505050612819565b005b34801561082957600080fd5b5061088e600480360381019080803590602001908201803590602001908080601f016020809104026020016040519081016040528093929190818152602001838380828437820191505050505050919291929080359060200190929190505050612880565b6040518082815260200191505060405180910390f35b600760009054906101000a900460ff1681565b6108bf612a91565b600760009054906101000a900460ff1615156108da57600080fd5b6000831115156108e957600080fd5b60006004856040518082805190602001908083835b60208310151561092357805182526020820191506020810190506020830392506108fe565b6001836020036101000a03801982511681845116808217855250505050505090500191505090815260200160405180910390205414151561096357600080fd5b600260009054906101000a900473ffffffffffffffffffffffffffffffffffffffff1673ffffffffffffffffffffffffffffffffffffffff16639e88fd8133856040518363ffffffff167c0100000000000000000000000000000000000000000000000000000000028152600401808373ffffffffffffffffffffffffffffffffffffffff1673ffffffffffffffffffffffffffffffffffffffff16815260200182815260200192505050602060405180830381600087803b158015610a2857600080fd5b505af1158015610a3c573d6000803e3d6000fd5b505050506040513d6020811015610a5257600080fd5b81019080805190602001909291905050501515610a6e57600080fd5b60065481600001818152505033816020019073ffffffffffffffffffffffffffffffffffffffff16908173ffffffffffffffffffffffffffffffffffffffff1681525050600181604001906003811115610ac457fe5b90816003811115610ad157fe5b815250508281606001818152505081816080018181525050828160a0018181525050600381908060018154018082558091505090600182039060005260206000209060080201600090919290919091506000820151816000015560208201518160010160006101000a81548173ffffffffffffffffffffffffffffffffffffffff021916908373ffffffffffffffffffffffffffffffffffffffff16021790555060408201518160010160146101000a81548160ff02191690836003811115610b9657fe5b0217905550606082015181600201556080820151816003015560a0820151816004015560c0820151816005015560e0820151816006019080519060200190610bdf929190612af8565b505050506006546004856040518082805190602001908083835b602083101515610c1e5780518252602082019150602081019050602083039250610bf9565b6001836020036101000a0380198251168184511680821785525050505050509050019150509081526020016040518091039020819055506003600654815481101515610c6657fe5b9060005260206000209060080201600601600090806001815401808255809150509060018203906000526020600020016000909192909190916101000a81548173ffffffffffffffffffffffffffffffffffffffff021916908373ffffffffffffffffffffffffffffffffffffffff16021790555050610cf2600160065461291490919063ffffffff16565b6006819055507f7083e11102808886115763619dc7e7c3f40b0b6dfd04262b94ea7de82d917ece81600001516040518082815260200191505060405180910390a150505050565b600381815481101515610d4857fe5b90600052602060002090600802016000915090508060000154908060010160009054906101000a900473ffffffffffffffffffffffffffffffffffffffff16908060010160149054906101000a900460ff16908060020154908060030154908060040154908060050154905087565b600160009054906101000a900473ffffffffffffffffffffffffffffffffffffffff1681565b60085481565b6060600382815481101515610df457fe5b9060005260206000209060080201600601805480602002602001604051908101604052809291908181526020018280548015610e8557602002820191906000526020600020905b8160009054906101000a900473ffffffffffffffffffffffffffffffffffffffff1673ffffffffffffffffffffffffffffffffffffffff1681526020019060010190808311610e3b575b50505050509050919050565b6000610eca6001600384815481101515610ea757fe5b90600052602060002090600802016006018054905061293090919063ffffffff16565b9050919050565b6000816006548111151515610ee557600080fd5b8260016003811115610ef357fe5b600382815481101515610f0257fe5b906000526020600020906008020160010160149054906101000a900460ff166003811115610f2c57fe5b141515610f3857600080fd5b6000610f448686612880565b141515610f5057600080fd5b600160009054906101000a900473ffffffffffffffffffffffffffffffffffffffff1673ffffffffffffffffffffffffffffffffffffffff1663095ea7b3600260009054906101000a900473ffffffffffffffffffffffffffffffffffffffff16600387815481101515610fc057fe5b9060005260206000209060080201600301546040518363ffffffff167c0100000000000000000000000000000000000000000000000000000000028152600401808373ffffffffffffffffffffffffffffffffffffffff1673ffffffffffffffffffffffffffffffffffffffff16815260200182815260200192505050602060405180830381600087803b15801561105757600080fd5b505af115801561106b573d6000803e3d6000fd5b505050506040513d602081101561108157600080fd5b8101908080519060200190929190505050151561109d57600080fd5b600260009054906101000a900473ffffffffffffffffffffffffffffffffffffffff1673ffffffffffffffffffffffffffffffffffffffff16639e88fd81336003878154811015156110eb57fe5b9060005260206000209060080201600301546040518363ffffffff167c0100000000000000000000000000000000000000000000000000000000028152600401808373ffffffffffffffffffffffffffffffffffffffff1673ffffffffffffffffffffffffffffffffffffffff16815260200182815260200192505050602060405180830381600087803b15801561118257600080fd5b505af1158015611196573d6000803e3d6000fd5b505050506040513d60208110156111ac57600080fd5b810190808051906020019092919050505015156111c857600080fd5b6003848154811015156111d757fe5b90600052602060002090600802016006018054905092506003848154811015156111fd57fe5b90600052602060002090600802016006013390806001815401808255809150509060018203906000526020600020016000909192909190916101000a81548173ffffffffffffffffffffffffffffffffffffffff021916908373ffffffffffffffffffffffffffffffffffffffff160217905550508260038581548110151561128257fe5b9060005260206000209060080201600701866040518082805190602001908083835b6020831015156112c957805182526020820191506020810190506020830392506112a4565b6001836020036101000a03801982511681845116808217855250505050505090500191505090815260200160405180910390208190555061135360038581548110151561131257fe5b90600052602060002090600802016003015460038681548110151561133357fe5b90600052602060002090600802016004015461291490919063ffffffff16565b60038581548110151561136257fe5b9060005260206000209060080201600401819055506113fa60038581548110151561138957fe5b906000526020600020906008020160030154600560003373ffffffffffffffffffffffffffffffffffffffff1673ffffffffffffffffffffffffffffffffffffffff16815260200190815260200160002060008781526020019081526020016000205461291490919063ffffffff16565b600560003373ffffffffffffffffffffffffffffffffffffffff1673ffffffffffffffffffffffffffffffffffffffff1681526020019081526020016000206000868152602001908152602001600020819055507f69f78033c8209029e76adfe04965ee0370ac60f49c2a1e87a474571497ec1471836040518082815260200191505060405180910390a15050505050565b6000600560003373ffffffffffffffffffffffffffffffffffffffff1673ffffffffffffffffffffffffffffffffffffffff1681526020019081526020016000206000838152602001908152602001600020549050919050565b60095481565b6000809054906101000a900473ffffffffffffffffffffffffffffffffffffffff1673ffffffffffffffffffffffffffffffffffffffff163373ffffffffffffffffffffffffffffffffffffffff1614151561154757600080fd5b6000809054906101000a900473ffffffffffffffffffffffffffffffffffffffff1673ffffffffffffffffffffffffffffffffffffffff167ff8df31144d9c2f0f6b59d69b8b98abd5459d07f2742c4df920b25aae33c6482060405160405180910390a260008060006101000a81548173ffffffffffffffffffffffffffffffffffffffff021916908373ffffffffffffffffffffffffffffffffffffffff160217905550565b6000813360038281548110151561160157fe5b906000526020600020906008020160010160009054906101000a900473ffffffffffffffffffffffffffffffffffffffff1673ffffffffffffffffffffffffffffffffffffffff168173ffffffffffffffffffffffffffffffffffffffff1614151561166c57600080fd5b836001600381111561167a57fe5b60038281548110151561168957fe5b906000526020600020906008020160010160149054906101000a900460ff1660038111156116b357fe5b1415156116bf57600080fd5b61170760646116f96008546003898154811015156116d957fe5b90600052602060002090600802016002015461294990919063ffffffff16565b61298190919063ffffffff16565b9350600260009054906101000a900473ffffffffffffffffffffffffffffffffffffffff1673ffffffffffffffffffffffffffffffffffffffff1663283760fa30866040518363ffffffff167c0100000000000000000000000000000000000000000000000000000000028152600401808373ffffffffffffffffffffffffffffffffffffffff1673ffffffffffffffffffffffffffffffffffffffff16815260200182815260200192505050602060405180830381600087803b1580156117ce57600080fd5b505af11580156117e2573d6000803e3d6000fd5b505050506040513d60208110156117f857600080fd5b8101908080519060200190929190505050151561181457600080fd5b600260009054906101000a900473ffffffffffffffffffffffffffffffffffffffff1673ffffffffffffffffffffffffffffffffffffffff1663283760fa336118868760038a81548110151561186657fe5b90600052602060002090600802016002015461293090919063ffffffff16565b6040518363ffffffff167c0100000000000000000000000000000000000000000000000000000000028152600401808373ffffffffffffffffffffffffffffffffffffffff1673ffffffffffffffffffffffffffffffffffffffff16815260200182815260200192505050602060405180830381600087803b15801561190b57600080fd5b505af115801561191f573d6000803e3d6000fd5b505050506040513d602081101561193557600080fd5b8101908080519060200190929190505050151561195157600080fd5b6003808681548110151561196157fe5b906000526020600020906008020160010160146101000a81548160ff0219169083600381111561198d57fe5b02179055507fb4103c36255d5c667daf96771c510f51dda75d8d4092d8cb143b36f727ea48f46003604051808260038111156119c557fe5b60ff16815260200191505060405180910390a15050505050565b6000809054906101000a900473ffffffffffffffffffffffffffffffffffffffff1681565b6000809054906101000a900473ffffffffffffffffffffffffffffffffffffffff1673ffffffffffffffffffffffffffffffffffffffff163373ffffffffffffffffffffffffffffffffffffffff16141515611a5f57600080fd5b8060098190555050565b6000809054906101000a900473ffffffffffffffffffffffffffffffffffffffff1673ffffffffffffffffffffffffffffffffffffffff163373ffffffffffffffffffffffffffffffffffffffff16141515611ac457600080fd5b80600760006101000a81548160ff02191690831515021790555050565b60006004826040518082805190602001908083835b602083101515611b1b5780518252602082019150602081019050602083039250611af6565b6001836020036101000a0380198251168184511680821785525050505050509050019150509081526020016040518091039020549050919050565b6000809054906101000a900473ffffffffffffffffffffffffffffffffffffffff1673ffffffffffffffffffffffffffffffffffffffff163373ffffffffffffffffffffffffffffffffffffffff16141515611bb157600080fd5b80600260006101000a81548173ffffffffffffffffffffffffffffffffffffffff021916908373ffffffffffffffffffffffffffffffffffffffff1602179055507f43ab431641dd45dd0661cad4b820e826d7c526af92e3121e1242d721f82ab3ad81604051808273ffffffffffffffffffffffffffffffffffffffff1673ffffffffffffffffffffffffffffffffffffffff16815260200191505060405180910390a150565b6000808333600382815481101515611c6c57fe5b906000526020600020906008020160010160009054906101000a900473ffffffffffffffffffffffffffffffffffffffff1673ffffffffffffffffffffffffffffffffffffffff168173ffffffffffffffffffffffffffffffffffffffff16141515611cd757600080fd5b8560016003811115611ce557fe5b600382815481101515611cf457fe5b906000526020600020906008020160010160149054906101000a900460ff166003811115611d1e57fe5b141515611d2a57600080fd5b8686600382815481101515611d3b57fe5b90600052602060002090600802016006018054905081101515611d5d57600080fd5b600389815481101515611d6c57fe5b906000526020600020906008020196503373ffffffffffffffffffffffffffffffffffffffff168760060189815481101515611da457fe5b9060005260206000200160009054906101000a900473ffffffffffffffffffffffffffffffffffffffff1673ffffffffffffffffffffffffffffffffffffffff1614151515611df257600080fd5b611e1e6064611e106009548a6004015461294990919063ffffffff16565b61298190919063ffffffff16565b9550600260009054906101000a900473ffffffffffffffffffffffffffffffffffffffff1673ffffffffffffffffffffffffffffffffffffffff1663283760fa30886040518363ffffffff167c0100000000000000000000000000000000000000000000000000000000028152600401808373ffffffffffffffffffffffffffffffffffffffff1673ffffffffffffffffffffffffffffffffffffffff16815260200182815260200192505050602060405180830381600087803b158015611ee557600080fd5b505af1158015611ef9573d6000803e3d6000fd5b505050506040513d6020811015611f0f57600080fd5b81019080805190602001909291905050501515611f2b57600080fd5b600260009054906101000a900473ffffffffffffffffffffffffffffffffffffffff1673ffffffffffffffffffffffffffffffffffffffff1663283760fa886006018a815481101515611f7a57fe5b9060005260206000200160009054906101000a900473ffffffffffffffffffffffffffffffffffffffff16611fbc898b6004015461293090919063ffffffff16565b6040518363ffffffff167c0100000000000000000000000000000000000000000000000000000000028152600401808373ffffffffffffffffffffffffffffffffffffffff1673ffffffffffffffffffffffffffffffffffffffff16815260200182815260200192505050602060405180830381600087803b15801561204157600080fd5b505af1158015612055573d6000803e3d6000fd5b505050506040513d602081101561206b57600080fd5b8101908080519060200190929190505050151561208757600080fd5b87876005018190555060028760010160146101000a81548160ff021916908360038111156120b157fe5b02179055507fb4103c36255d5c667daf96771c510f51dda75d8d4092d8cb143b36f727ea48f46002604051808260038111156120e957fe5b60ff16815260200191505060405180910390a1505050505050505050565b6000809054906101000a900473ffffffffffffffffffffffffffffffffffffffff1673ffffffffffffffffffffffffffffffffffffffff163373ffffffffffffffffffffffffffffffffffffffff1614151561216257600080fd5b8060088190555050565b60038081111561217857fe5b60038281548110151561218757fe5b906000526020600020906008020160010160149054906101000a900460ff1660038111156121b157fe5b1415156121bd57600080fd5b6000600560003373ffffffffffffffffffffffffffffffffffffffff1673ffffffffffffffffffffffffffffffffffffffff16815260200190815260200160002060008381526020019081526020016000205411151561221c57600080fd5b600260009054906101000a900473ffffffffffffffffffffffffffffffffffffffff1673ffffffffffffffffffffffffffffffffffffffff1663283760fa33600560003373ffffffffffffffffffffffffffffffffffffffff1673ffffffffffffffffffffffffffffffffffffffff1681526020019081526020016000206000858152602001908152602001600020546040518363ffffffff167c0100000000000000000000000000000000000000000000000000000000028152600401808373ffffffffffffffffffffffffffffffffffffffff1673ffffffffffffffffffffffffffffffffffffffff16815260200182815260200192505050602060405180830381600087803b15801561233157600080fd5b505af1158015612345573d6000803e3d6000fd5b505050506040513d602081101561235b57600080fd5b8101908080519060200190929190505050151561237757600080fd5b6123fa600560003373ffffffffffffffffffffffffffffffffffffffff1673ffffffffffffffffffffffffffffffffffffffff1681526020019081526020016000206000838152602001908152602001600020546003838154811015156123da57fe5b90600052602060002090600802016004015461293090919063ffffffff16565b60038281548110151561240957fe5b9060005260206000209060080201600401819055506000600560003373ffffffffffffffffffffffffffffffffffffffff1673ffffffffffffffffffffffffffffffffffffffff1681526020019081526020016000206000838152602001908152602001600020819055507f5c519f40b02c80f141c9c828282cfe4f7a9760eecc74db1a2e566645e43ff284600560003373ffffffffffffffffffffffffffffffffffffffff1673ffffffffffffffffffffffffffffffffffffffff1681526020019081526020016000206000838152602001908152602001600020546040518082815260200191505060405180910390a150565b6000809054906101000a900473ffffffffffffffffffffffffffffffffffffffff1673ffffffffffffffffffffffffffffffffffffffff163373ffffffffffffffffffffffffffffffffffffffff1614151561255957600080fd5b60008111151561256857600080fd5b600160009054906101000a900473ffffffffffffffffffffffffffffffffffffffff1673ffffffffffffffffffffffffffffffffffffffff1663095ea7b330836040518363ffffffff167c0100000000000000000000000000000000000000000000000000000000028152600401808373ffffffffffffffffffffffffffffffffffffffff1673ffffffffffffffffffffffffffffffffffffffff16815260200182815260200192505050602060405180830381600087803b15801561262d57600080fd5b505af1158015612641573d6000803e3d6000fd5b505050506040513d602081101561265757600080fd5b8101908080519060200190929190505050151561267357600080fd5b600160009054906101000a900473ffffffffffffffffffffffffffffffffffffffff1673ffffffffffffffffffffffffffffffffffffffff166323b872dd3084846040518463ffffffff167c0100000000000000000000000000000000000000000000000000000000028152600401808473ffffffffffffffffffffffffffffffffffffffff1673ffffffffffffffffffffffffffffffffffffffff1681526020018373ffffffffffffffffffffffffffffffffffffffff1673ffffffffffffffffffffffffffffffffffffffff1681526020018281526020019350505050602060405180830381600087803b15801561276c57600080fd5b505af1158015612780573d6000803e3d6000fd5b505050506040513d602081101561279657600080fd5b810190808051906020019092919050505015156127b257600080fd5b7f3100297ce0690287a6fbc4cacbe364a32c3c5a3136155777eb7707650995f363816040518082815260200191505060405180910390a15050565b600260009054906101000a900473ffffffffffffffffffffffffffffffffffffffff1681565b60065481565b6000809054906101000a900473ffffffffffffffffffffffffffffffffffffffff1673ffffffffffffffffffffffffffffffffffffffff163373ffffffffffffffffffffffffffffffffffffffff1614151561287457600080fd5b61287d81612997565b50565b600060038281548110151561289157fe5b9060005260206000209060080201600701836040518082805190602001908083835b6020831015156128d857805182526020820191506020810190506020830392506128b3565b6001836020036101000a038019825116818451168082178552505050505050905001915050908152602001604051809103902054905092915050565b6000818301905082811015151561292757fe5b80905092915050565b600082821115151561293e57fe5b818303905092915050565b60008083141561295c576000905061297b565b818302905081838281151561296d57fe5b0414151561297757fe5b8090505b92915050565b6000818381151561298e57fe5b04905092915050565b600073ffffffffffffffffffffffffffffffffffffffff168173ffffffffffffffffffffffffffffffffffffffff16141515156129d357600080fd5b8073ffffffffffffffffffffffffffffffffffffffff166000809054906101000a900473ffffffffffffffffffffffffffffffffffffffff1673ffffffffffffffffffffffffffffffffffffffff167f8be0079c531659141344cd1fd0a4f28419497f9722a3daafe3b4186f6b6457e060405160405180910390a3806000806101000a81548173ffffffffffffffffffffffffffffffffffffffff021916908373ffffffffffffffffffffffffffffffffffffffff16021790555050565b6101006040519081016040528060008152602001600073ffffffffffffffffffffffffffffffffffffffff16815260200160006003811115612acf57fe5b815260200160008152602001600081526020016000815260200160008152602001606081525090565b828054828255906000526020600020908101928215612b71579160200282015b82811115612b705782518260006101000a81548173ffffffffffffffffffffffffffffffffffffffff021916908373ffffffffffffffffffffffffffffffffffffffff16021790555091602001919060010190612b18565b5b509050612b7e9190612b82565b5090565b612bc291905b80821115612bbe57600081816101000a81549073ffffffffffffffffffffffffffffffffffffffff021916905550600101612b88565b5090565b905600a165627a7a72305820ad8a1eb8863f584a84ca39bf4672cc744ecb7fe3e2eb134156283fd2dc20e1650029",
  "source": "pragma solidity ^0.4.23;\n\nimport \"./Escrow.sol\";\n// import 'github.com/OpenZeppelin/zeppelin-solidity/contracts/token/ERC20/StandardToken.sol';\n// import 'github.com/OpenZeppelin/zeppelin-solidity/contracts/ownership/Ownable.sol';\n// import 'github.com/OpenZeppelin/zeppelin-solidity/contracts/math/SafeMath.sol';\nimport \"../node_modules/zeppelin-solidity/contracts/token/ERC20/StandardToken.sol\";\nimport \"../node_modules/zeppelin-solidity/contracts/ownership/Ownable.sol\";\n\ncontract CanHire is Ownable {\n\n    using SafeMath for uint;\n\n    enum Status { Default, Open, Closed, Cancelled }\n\n    struct Post {\n        uint id;\n        address owner;\n        Status status;\n        uint bounty;\n        uint cost;\n        uint honeyPot;\n        uint candidateSelected;\n        address[] recommenders;\n        mapping(string => uint) returnCandidateId;\n    }\n\n    struct Refund {\n        mapping(uint => uint) amount; // mapping from postId to refund amount\n    }\n\n    StandardToken public canYaCoin;\n    Escrow public escrow;\n    Post[] public posts;\n    mapping(string => uint) getPostId; // map unique post id to post id\n    mapping(address => mapping(uint => uint)) contribution; // recommender => postId => refund amount\n    uint public numPosts = 1;\n    bool public active;\n    uint public cancelFee = 1;\n    uint public closeFee = 1;\n\n    event PostCreated(uint postId);\n    event CandidateRecommended(uint candidateId);\n    event EscrowUpdated(address escrowAddress);\n    event PostStatusUpdate(Status status);\n    event ProfitsExtracted(uint profit);\n    event GetPostId(uint postId);\n    event GetRefund(uint cost);\n    event UpdateContribution(address recommender, uint postId);\n\n    modifier is_active(){\n        require(active);\n        _;\n    }\n\n    modifier is_post_owner(uint postId, address caller) {\n        require(caller == posts[postId].owner);\n        _;\n    }\n\n    modifier has_candidate(uint postId, uint candidateId) {\n        require(candidateId < posts[postId].recommenders.length);\n        _;\n    }\n\n    modifier post_exist(uint postId) {\n        require(postId <= numPosts);\n        _;\n    }\n\n    modifier post_is_open(uint postId) {\n        require(posts[postId].status == Status.Open);\n        _;\n    }\n\n    constructor(StandardToken _canYaCoin, Escrow _escrow) public {\n        canYaCoin = _canYaCoin;\n        escrow = _escrow;\n        setActive(true);\n        Post memory defaultPost;\n        posts.push(defaultPost);\n    }\n\n    function getRecommenders(uint postId) public view returns (address[] recommenderList) {\n        recommenderList = posts[postId].recommenders;\n    }\n\n    function setActive(bool isActive) public onlyOwner {\n        active = isActive;\n    }\n\n    function setCancelFee(uint _cancelFee) public onlyOwner {\n        cancelFee = _cancelFee;\n    }\n\n    function setCloseFee(uint _closeFee) public onlyOwner {\n        closeFee = _closeFee;\n    }\n\n    function setEscrow(address newEscrow) public onlyOwner {\n        escrow = Escrow(newEscrow);\n        emit EscrowUpdated(newEscrow);\n    }\n\n    function addPost(string uniqueId, uint _bounty, uint _cost) public is_active {\n        require(_bounty > 0);\n        require(getPostId[uniqueId] == 0);\n        require(escrow.transferToEscrow(msg.sender, _bounty));\n        Post memory newPost;\n        newPost.id = numPosts;\n        newPost.owner = msg.sender;\n        newPost.status = Status.Open;\n        newPost.bounty = _bounty;\n        newPost.cost = _cost;\n        newPost.honeyPot = _bounty;\n        posts.push(newPost);\n        getPostId[uniqueId] = numPosts;\n        posts[numPosts].recommenders.push(0x0);\n        numPosts = numPosts.add(1);\n        emit PostCreated(newPost.id);\n    }\n\n    function cancelPost(uint postId)\n        public\n        is_post_owner(postId, msg.sender)\n        post_is_open(postId)\n    {\n        uint fee = posts[postId].bounty.mul(cancelFee).div(100);\n        require(escrow.transferFromEscrow(address(this), fee));\n        require(escrow.transferFromEscrow(msg.sender, posts[postId].bounty.sub(fee)));\n        posts[postId].status = Status.Cancelled;\n        emit PostStatusUpdate(Status.Cancelled);\n    }\n\n    function getRefund(uint postId) public {\n        require(posts[postId].status == Status.Cancelled);\n        require(contribution[msg.sender][postId] > 0);\n        require(escrow.transferFromEscrow(msg.sender, contribution[msg.sender][postId]));\n        posts[postId].honeyPot = posts[postId].honeyPot.sub(contribution[msg.sender][postId]);\n        contribution[msg.sender][postId] = 0;\n        emit GetRefund(contribution[msg.sender][postId]);\n    }\n\n    function closePost(uint postId, uint candidateId)\n        public\n        is_post_owner(postId, msg.sender)\n        post_is_open(postId)\n        has_candidate(postId, candidateId)\n    {\n        Post storage post = posts[postId];\n        require(post.recommenders[candidateId] != msg.sender);\n        uint fee = post.honeyPot.mul(closeFee).div(100);\n        require(escrow.transferFromEscrow(address(this), fee));\n        require(escrow.transferFromEscrow(post.recommenders[candidateId], post.honeyPot.sub(fee)));\n        post.candidateSelected = candidateId;\n        post.status = Status.Closed;\n        emit PostStatusUpdate(Status.Closed);\n    }\n\n    function recommend(string uniqueCandidateId, uint postId) \n        public\n        post_exist(postId)\n        post_is_open(postId)\n    {\n        require(getCandidateId(uniqueCandidateId, postId) == 0);\n        require(canYaCoin.approve(address(escrow), posts[postId].cost));\n        require(escrow.transferToEscrow(msg.sender, posts[postId].cost));\n        uint candidateId = posts[postId].recommenders.length;\n        posts[postId].recommenders.push(msg.sender);\n        posts[postId].returnCandidateId[uniqueCandidateId] = candidateId;\n        posts[postId].honeyPot = posts[postId].honeyPot.add(posts[postId].cost);\n        contribution[msg.sender][postId] = contribution[msg.sender][postId].add(posts[postId].cost);\n        emit CandidateRecommended(candidateId);\n    }\n\n    function extractProfits(address _to, uint _amount) public onlyOwner {\n        require(_amount > 0);\n        require(canYaCoin.approve(address(this), _amount));\n        require(canYaCoin.transferFrom(address(this), _to, _amount));\n        emit ProfitsExtracted(_amount);\n    }\n\n    function getId(string uniqueId) public view returns (uint postId) {\n        postId = getPostId[uniqueId];\n    }\n\n    function getCandidateId(string uniqueCandidateId, uint postId) \n        public \n        view \n        returns (uint candidateId) \n    {\n        candidateId = posts[postId].returnCandidateId[uniqueCandidateId];\n    }\n\n    function getNumCandidates(uint postId)\n        public \n        view \n        returns (uint numCandidates)\n    {\n        numCandidates = posts[postId].recommenders.length.sub(1);\n    }\n\n    function checkContribution(uint postId) public view returns (uint) {\n        return contribution[msg.sender][postId];\n    }\n\n}\n",
  "sourcePath": "/Users/freeyiyi1993/Desktop/canseek-contracts/contracts/CanHire.sol",
  "compiler": {
    "name": "solc",
    "version": "0.4.24+commit.e67f0147.Emscripten.clang"
  },
  "schemaVersion": "3.0.0-beta.0",
  "updatedAt": "2018-08-27T09:37:44.000Z"
}