{
  "contractName": "CanHire",
  "abi": [
    {
      "constant": true,
      "inputs": [],
      "name": "active",
      "outputs": [
        {
          "name": "",
          "type": "bool"
        }
      ],
      "payable": false,
      "stateMutability": "view",
      "type": "function"
    },
    {
      "constant": true,
      "inputs": [
        {
          "name": "",
          "type": "uint256"
        }
      ],
      "name": "posts",
      "outputs": [
        {
          "name": "id",
          "type": "uint256"
        },
        {
          "name": "owner",
          "type": "address"
        },
        {
          "name": "status",
          "type": "uint8"
        },
        {
          "name": "bounty",
          "type": "uint256"
        },
        {
          "name": "cost",
          "type": "uint256"
        },
        {
          "name": "honeyPot",
          "type": "uint256"
        },
        {
          "name": "numCandidates",
          "type": "uint256"
        },
        {
          "name": "candidateSelected",
          "type": "uint256"
        }
      ],
      "payable": false,
      "stateMutability": "view",
      "type": "function"
    },
    {
      "constant": true,
      "inputs": [],
      "name": "canYaCoin",
      "outputs": [
        {
          "name": "",
          "type": "address"
        }
      ],
      "payable": false,
      "stateMutability": "view",
      "type": "function"
    },
    {
      "constant": true,
      "inputs": [],
      "name": "cancellationFee",
      "outputs": [
        {
          "name": "",
          "type": "uint256"
        }
      ],
      "payable": false,
      "stateMutability": "view",
      "type": "function"
    },
    {
      "constant": true,
      "inputs": [],
      "name": "owner",
      "outputs": [
        {
          "name": "",
          "type": "address"
        }
      ],
      "payable": false,
      "stateMutability": "view",
      "type": "function"
    },
    {
      "constant": true,
      "inputs": [],
      "name": "escrow",
      "outputs": [
        {
          "name": "",
          "type": "address"
        }
      ],
      "payable": false,
      "stateMutability": "view",
      "type": "function"
    },
    {
      "constant": true,
      "inputs": [],
      "name": "numPosts",
      "outputs": [
        {
          "name": "",
          "type": "uint256"
        }
      ],
      "payable": false,
      "stateMutability": "view",
      "type": "function"
    },
    {
      "constant": false,
      "inputs": [
        {
          "name": "newOwner",
          "type": "address"
        }
      ],
      "name": "transferOwnership",
      "outputs": [],
      "payable": false,
      "stateMutability": "nonpayable",
      "type": "function"
    },
    {
      "inputs": [
        {
          "name": "_canYaCoin",
          "type": "address"
        },
        {
          "name": "_escrow",
          "type": "address"
        }
      ],
      "payable": false,
      "stateMutability": "nonpayable",
      "type": "constructor"
    },
    {
      "anonymous": false,
      "inputs": [
        {
          "indexed": false,
          "name": "postId",
          "type": "uint256"
        }
      ],
      "name": "PostCreated",
      "type": "event"
    },
    {
      "anonymous": false,
      "inputs": [
        {
          "indexed": false,
          "name": "postId",
          "type": "uint256"
        },
        {
          "indexed": false,
          "name": "candidateId",
          "type": "uint256"
        }
      ],
      "name": "CandidateRecommended",
      "type": "event"
    },
    {
      "anonymous": false,
      "inputs": [
        {
          "indexed": false,
          "name": "escrowAddress",
          "type": "address"
        }
      ],
      "name": "EscrowUpdated",
      "type": "event"
    },
    {
      "anonymous": false,
      "inputs": [
        {
          "indexed": false,
          "name": "tokenAddress",
          "type": "address"
        },
        {
          "indexed": false,
          "name": "status",
          "type": "bool"
        }
      ],
      "name": "TokenStatusUpdate",
      "type": "event"
    },
    {
      "anonymous": false,
      "inputs": [
        {
          "indexed": false,
          "name": "postId",
          "type": "uint256"
        },
        {
          "indexed": false,
          "name": "status",
          "type": "uint8"
        }
      ],
      "name": "PostStatusUpdate",
      "type": "event"
    },
    {
      "anonymous": false,
      "inputs": [
        {
          "indexed": true,
          "name": "previousOwner",
          "type": "address"
        },
        {
          "indexed": true,
          "name": "newOwner",
          "type": "address"
        }
      ],
      "name": "OwnershipTransferred",
      "type": "event"
    },
    {
      "constant": true,
      "inputs": [
        {
          "name": "postId",
          "type": "uint256"
        },
        {
          "name": "candidateId",
          "type": "uint256"
        }
      ],
      "name": "checkPostHasCandidate",
      "outputs": [
        {
          "name": "hasCandidate",
          "type": "bool"
        }
      ],
      "payable": false,
      "stateMutability": "view",
      "type": "function"
    },
    {
      "constant": true,
      "inputs": [
        {
          "name": "postId",
          "type": "uint256"
        },
        {
          "name": "candidateId",
          "type": "uint256"
        }
      ],
      "name": "getCandidateRecommender",
      "outputs": [
        {
          "name": "recommender",
          "type": "address"
        }
      ],
      "payable": false,
      "stateMutability": "view",
      "type": "function"
    },
    {
      "constant": false,
      "inputs": [
        {
          "name": "isActive",
          "type": "bool"
        }
      ],
      "name": "setActive",
      "outputs": [],
      "payable": false,
      "stateMutability": "nonpayable",
      "type": "function"
    },
    {
      "constant": false,
      "inputs": [
        {
          "name": "_cancellationFee",
          "type": "uint256"
        }
      ],
      "name": "setCancellationFee",
      "outputs": [],
      "payable": false,
      "stateMutability": "nonpayable",
      "type": "function"
    },
    {
      "constant": false,
      "inputs": [
        {
          "name": "newEscrow",
          "type": "address"
        }
      ],
      "name": "setEscrow",
      "outputs": [],
      "payable": false,
      "stateMutability": "nonpayable",
      "type": "function"
    },
    {
      "constant": false,
      "inputs": [
        {
          "name": "_bounty",
          "type": "uint256"
        },
        {
          "name": "_cost",
          "type": "uint256"
        }
      ],
      "name": "addPost",
      "outputs": [],
      "payable": false,
      "stateMutability": "nonpayable",
      "type": "function"
    },
    {
      "constant": false,
      "inputs": [
        {
          "name": "postId",
          "type": "uint256"
        }
      ],
      "name": "cancelPost",
      "outputs": [],
      "payable": false,
      "stateMutability": "nonpayable",
      "type": "function"
    },
    {
      "constant": false,
      "inputs": [
        {
          "name": "postId",
          "type": "uint256"
        },
        {
          "name": "candidateId",
          "type": "uint256"
        }
      ],
      "name": "closePost",
      "outputs": [],
      "payable": false,
      "stateMutability": "nonpayable",
      "type": "function"
    },
    {
      "constant": false,
      "inputs": [
        {
          "name": "postId",
          "type": "uint256"
        }
      ],
      "name": "recommend",
      "outputs": [],
      "payable": false,
      "stateMutability": "nonpayable",
      "type": "function"
    }
  ],
  "bytecode": "0x6080604052600160065534801561001557600080fd5b50604051604080611e518339810180604052810190808051906020019092919080519060200190929190505050336000806101000a81548173ffffffffffffffffffffffffffffffffffffffff021916908373ffffffffffffffffffffffffffffffffffffffff16021790555081600160006101000a81548173ffffffffffffffffffffffffffffffffffffffff021916908373ffffffffffffffffffffffffffffffffffffffff16021790555080600260006101000a81548173ffffffffffffffffffffffffffffffffffffffff021916908373ffffffffffffffffffffffffffffffffffffffff16021790555061011d6001610124640100000000026401000000009004565b505061019c565b6000809054906101000a900473ffffffffffffffffffffffffffffffffffffffff1673ffffffffffffffffffffffffffffffffffffffff163373ffffffffffffffffffffffffffffffffffffffff1614151561017f57600080fd5b80600560006101000a81548160ff02191690831515021790555050565b611ca6806101ab6000396000f3006080604052600436106100f1576000357c0100000000000000000000000000000000000000000000000000000000900463ffffffff16806302fb0c5e146100f65780630b1e7f83146101255780630b32ca72146101d15780632dd10ad3146102285780636ef569a51461025557806383db1548146102805780638bc4f67f146102b75780638da5cb5b146102e45780638e3554451461033b578063acec338a1461038a578063c10c3546146103b9578063c21d7a4e146103fc578063cb5c374214610433578063d01373a814610460578063e2fdcc17146104d7578063ec7331e91461052e578063f2fde38b14610559575b600080fd5b34801561010257600080fd5b5061010b61059c565b604051808215151515815260200191505060405180910390f35b34801561013157600080fd5b50610150600480360381019080803590602001909291905050506105af565b604051808981526020018873ffffffffffffffffffffffffffffffffffffffff1673ffffffffffffffffffffffffffffffffffffffff16815260200187600381111561019857fe5b60ff1681526020018681526020018581526020018481526020018381526020018281526020019850505050505050505060405180910390f35b3480156101dd57600080fd5b506101e6610633565b604051808273ffffffffffffffffffffffffffffffffffffffff1673ffffffffffffffffffffffffffffffffffffffff16815260200191505060405180910390f35b34801561023457600080fd5b5061025360048036038101908080359060200190929190505050610659565b005b34801561026157600080fd5b5061026a6106be565b6040518082815260200191505060405180910390f35b34801561028c57600080fd5b506102b560048036038101908080359060200190929190803590602001909291905050506106c4565b005b3480156102c357600080fd5b506102e260048036038101908080359060200190929190505050610aec565b005b3480156102f057600080fd5b506102f9611033565b604051808273ffffffffffffffffffffffffffffffffffffffff1673ffffffffffffffffffffffffffffffffffffffff16815260200191505060405180910390f35b34801561034757600080fd5b506103706004803603810190808035906020019092919080359060200190929190505050611058565b604051808215151515815260200191505060405180910390f35b34801561039657600080fd5b506103b76004803603810190808035151590602001909291905050506110a1565b005b3480156103c557600080fd5b506103fa600480360381019080803573ffffffffffffffffffffffffffffffffffffffff169060200190929190505050611119565b005b34801561040857600080fd5b50610431600480360381019080803590602001909291908035906020019092919050505061121b565b005b34801561043f57600080fd5b5061045e60048036038101908080359060200190929190505050611572565b005b34801561046c57600080fd5b5061049560048036038101908080359060200190929190803590602001909291905050506119b3565b604051808273ffffffffffffffffffffffffffffffffffffffff1673ffffffffffffffffffffffffffffffffffffffff16815260200191505060405180910390f35b3480156104e357600080fd5b506104ec611a0f565b604051808273ffffffffffffffffffffffffffffffffffffffff1673ffffffffffffffffffffffffffffffffffffffff16815260200191505060405180910390f35b34801561053a57600080fd5b50610543611a35565b6040518082815260200191505060405180910390f35b34801561056557600080fd5b5061059a600480360381019080803573ffffffffffffffffffffffffffffffffffffffff169060200190929190505050611a3b565b005b600560009054906101000a900460ff1681565b6003818154811015156105be57fe5b90600052602060002090600902016000915090508060000154908060010160009054906101000a900473ffffffffffffffffffffffffffffffffffffffff16908060010160149054906101000a900460ff16908060020154908060030154908060040154908060050154908060060154905088565b600160009054906101000a900473ffffffffffffffffffffffffffffffffffffffff1681565b6000809054906101000a900473ffffffffffffffffffffffffffffffffffffffff1673ffffffffffffffffffffffffffffffffffffffff163373ffffffffffffffffffffffffffffffffffffffff161415156106b457600080fd5b8060068190555050565b60065481565b6106cc611c13565b600560009054906101000a900460ff1615156106e757600080fd5b6000831115156106f657600080fd5b600160009054906101000a900473ffffffffffffffffffffffffffffffffffffffff1673ffffffffffffffffffffffffffffffffffffffff1663095ea7b3600260009054906101000a900473ffffffffffffffffffffffffffffffffffffffff16856040518363ffffffff167c0100000000000000000000000000000000000000000000000000000000028152600401808373ffffffffffffffffffffffffffffffffffffffff1673ffffffffffffffffffffffffffffffffffffffff16815260200182815260200192505050602060405180830381600087803b1580156107dd57600080fd5b505af11580156107f1573d6000803e3d6000fd5b505050506040513d602081101561080757600080fd5b8101908080519060200190929190505050151561082357600080fd5b600260009054906101000a900473ffffffffffffffffffffffffffffffffffffffff1673ffffffffffffffffffffffffffffffffffffffff16639e88fd8133856040518363ffffffff167c0100000000000000000000000000000000000000000000000000000000028152600401808373ffffffffffffffffffffffffffffffffffffffff1673ffffffffffffffffffffffffffffffffffffffff16815260200182815260200192505050602060405180830381600087803b1580156108e857600080fd5b505af11580156108fc573d6000803e3d6000fd5b505050506040513d602081101561091257600080fd5b8101908080519060200190929190505050151561092e57600080fd5b60045481600001818152505033816020019073ffffffffffffffffffffffffffffffffffffffff16908173ffffffffffffffffffffffffffffffffffffffff168152505060018160400190600381111561098457fe5b9081600381111561099157fe5b815250508281606001818152505081816080018181525050828160a0018181525050600381908060018154018082558091505090600182039060005260206000209060090201600090919290919091506000820151816000015560208201518160010160006101000a81548173ffffffffffffffffffffffffffffffffffffffff021916908373ffffffffffffffffffffffffffffffffffffffff16021790555060408201518160010160146101000a81548160ff02191690836003811115610a5657fe5b0217905550606082015181600201556080820151816003015560a0820151816004015560c0820151816005015560e08201518160060155505050610aa66001600454611b9090919063ffffffff16565b6004819055507f7083e11102808886115763619dc7e7c3f40b0b6dfd04262b94ea7de82d917ece81600001516040518082815260200191505060405180910390a1505050565b60008060008333600382815481101515610b0257fe5b906000526020600020906009020160010160009054906101000a900473ffffffffffffffffffffffffffffffffffffffff1673ffffffffffffffffffffffffffffffffffffffff168173ffffffffffffffffffffffffffffffffffffffff16141515610b6d57600080fd5b8560016003811115610b7b57fe5b600382815481101515610b8a57fe5b906000526020600020906009020160010160149054906101000a900460ff166003811115610bb457fe5b141515610bc057600080fd5b600387815481101515610bcf57fe5b90600052602060002090600902019550600094505b8560050154851015610d4157600260009054906101000a900473ffffffffffffffffffffffffffffffffffffffff1673ffffffffffffffffffffffffffffffffffffffff1663283760fa87600801600088815260200190815260200160002060009054906101000a900473ffffffffffffffffffffffffffffffffffffffff1688600301546040518363ffffffff167c0100000000000000000000000000000000000000000000000000000000028152600401808373ffffffffffffffffffffffffffffffffffffffff1673ffffffffffffffffffffffffffffffffffffffff16815260200182815260200192505050602060405180830381600087803b158015610cee57600080fd5b505af1158015610d02573d6000803e3d6000fd5b505050506040513d6020811015610d1857600080fd5b81019080805190602001909291905050501515610d3457600080fd5b8480600101955050610be4565b610d6d6064610d5f6006548960020154611bac90919063ffffffff16565b611be490919063ffffffff16565b9350600260009054906101000a900473ffffffffffffffffffffffffffffffffffffffff1673ffffffffffffffffffffffffffffffffffffffff1663283760fa30866040518363ffffffff167c0100000000000000000000000000000000000000000000000000000000028152600401808373ffffffffffffffffffffffffffffffffffffffff1673ffffffffffffffffffffffffffffffffffffffff16815260200182815260200192505050602060405180830381600087803b158015610e3457600080fd5b505af1158015610e48573d6000803e3d6000fd5b505050506040513d6020811015610e5e57600080fd5b81019080805190602001909291905050501515610e7a57600080fd5b600260009054906101000a900473ffffffffffffffffffffffffffffffffffffffff1673ffffffffffffffffffffffffffffffffffffffff1663283760fa33610ed0878a60020154611bfa90919063ffffffff16565b6040518363ffffffff167c0100000000000000000000000000000000000000000000000000000000028152600401808373ffffffffffffffffffffffffffffffffffffffff1673ffffffffffffffffffffffffffffffffffffffff16815260200182815260200192505050602060405180830381600087803b158015610f5557600080fd5b505af1158015610f69573d6000803e3d6000fd5b505050506040513d6020811015610f7f57600080fd5b81019080805190602001909291905050501515610f9b57600080fd5b60038088815481101515610fab57fe5b906000526020600020906009020160010160146101000a81548160ff02191690836003811115610fd757fe5b02179055507fd01d663fb7b386c1bdc2b4e784a77c6c43817e7d5a3153ee5155b01c35d0a19d8760036040518083815260200182600381111561101657fe5b60ff1681526020019250505060405180910390a150505050505050565b6000809054906101000a900473ffffffffffffffffffffffffffffffffffffffff1681565b600060038381548110151561106957fe5b9060005260206000209060090201600701600083815260200190815260200160002060009054906101000a900460ff16905092915050565b6000809054906101000a900473ffffffffffffffffffffffffffffffffffffffff1673ffffffffffffffffffffffffffffffffffffffff163373ffffffffffffffffffffffffffffffffffffffff161415156110fc57600080fd5b80600560006101000a81548160ff02191690831515021790555050565b6000809054906101000a900473ffffffffffffffffffffffffffffffffffffffff1673ffffffffffffffffffffffffffffffffffffffff163373ffffffffffffffffffffffffffffffffffffffff1614151561117457600080fd5b80600260006101000a81548173ffffffffffffffffffffffffffffffffffffffff021916908373ffffffffffffffffffffffffffffffffffffffff1602179055507f43ab431641dd45dd0661cad4b820e826d7c526af92e3121e1242d721f82ab3ad81604051808273ffffffffffffffffffffffffffffffffffffffff1673ffffffffffffffffffffffffffffffffffffffff16815260200191505060405180910390a150565b6000823360038281548110151561122e57fe5b906000526020600020906009020160010160009054906101000a900473ffffffffffffffffffffffffffffffffffffffff1673ffffffffffffffffffffffffffffffffffffffff168173ffffffffffffffffffffffffffffffffffffffff1614151561129957600080fd5b84600160038111156112a757fe5b6003828154811015156112b657fe5b906000526020600020906009020160010160149054906101000a900460ff1660038111156112e057fe5b1415156112ec57600080fd5b6003868154811015156112fb57fe5b9060005260206000209060090201935083600701600086815260200190815260200160002060009054906101000a900460ff16151561133957600080fd5b3373ffffffffffffffffffffffffffffffffffffffff1684600801600087815260200190815260200160002060009054906101000a900473ffffffffffffffffffffffffffffffffffffffff1673ffffffffffffffffffffffffffffffffffffffff16141515156113a957600080fd5b600260009054906101000a900473ffffffffffffffffffffffffffffffffffffffff1673ffffffffffffffffffffffffffffffffffffffff1663283760fa85600801600088815260200190815260200160002060009054906101000a900473ffffffffffffffffffffffffffffffffffffffff1686600401546040518363ffffffff167c0100000000000000000000000000000000000000000000000000000000028152600401808373ffffffffffffffffffffffffffffffffffffffff1673ffffffffffffffffffffffffffffffffffffffff16815260200182815260200192505050602060405180830381600087803b1580156114a757600080fd5b505af11580156114bb573d6000803e3d6000fd5b505050506040513d60208110156114d157600080fd5b810190808051906020019092919050505015156114ed57600080fd5b84846006018190555060028460010160146101000a81548160ff0219169083600381111561151757fe5b02179055507fd01d663fb7b386c1bdc2b4e784a77c6c43817e7d5a3153ee5155b01c35d0a19d8660026040518083815260200182600381111561155657fe5b60ff1681526020019250505060405180910390a1505050505050565b6000600160009054906101000a900473ffffffffffffffffffffffffffffffffffffffff1673ffffffffffffffffffffffffffffffffffffffff1663095ea7b3600260009054906101000a900473ffffffffffffffffffffffffffffffffffffffff166003858154811015156115e457fe5b9060005260206000209060090201600301546040518363ffffffff167c0100000000000000000000000000000000000000000000000000000000028152600401808373ffffffffffffffffffffffffffffffffffffffff1673ffffffffffffffffffffffffffffffffffffffff16815260200182815260200192505050602060405180830381600087803b15801561167b57600080fd5b505af115801561168f573d6000803e3d6000fd5b505050506040513d60208110156116a557600080fd5b810190808051906020019092919050505015156116c157600080fd5b600260009054906101000a900473ffffffffffffffffffffffffffffffffffffffff1673ffffffffffffffffffffffffffffffffffffffff16639e88fd813360038581548110151561170f57fe5b9060005260206000209060090201600301546040518363ffffffff167c0100000000000000000000000000000000000000000000000000000000028152600401808373ffffffffffffffffffffffffffffffffffffffff1673ffffffffffffffffffffffffffffffffffffffff16815260200182815260200192505050602060405180830381600087803b1580156117a657600080fd5b505af11580156117ba573d6000803e3d6000fd5b505050506040513d60208110156117d057600080fd5b810190808051906020019092919050505015156117ec57600080fd5b6003828154811015156117fb57fe5b906000526020600020906009020160050154905060038281548110151561181e57fe5b9060005260206000209060090201600501600081548092919060010191905055503360038381548110151561184f57fe5b9060005260206000209060090201600801600083815260200190815260200160002060006101000a81548173ffffffffffffffffffffffffffffffffffffffff021916908373ffffffffffffffffffffffffffffffffffffffff16021790555060016003838154811015156118c057fe5b9060005260206000209060090201600701600083815260200190815260200160002060006101000a81548160ff02191690831515021790555061194c60038381548110151561190b57fe5b90600052602060002090600902016003015460038481548110151561192c57fe5b906000526020600020906009020160040154611b9090919063ffffffff16565b60038381548110151561195b57fe5b9060005260206000209060090201600401819055507ff4b660683aafb217d9890ac7e584356bccb4c78371796c262e9d0fa35d1d2c9c8282604051808381526020018281526020019250505060405180910390a15050565b60006003838154811015156119c457fe5b9060005260206000209060090201600801600083815260200190815260200160002060009054906101000a900473ffffffffffffffffffffffffffffffffffffffff16905092915050565b600260009054906101000a900473ffffffffffffffffffffffffffffffffffffffff1681565b60045481565b6000809054906101000a900473ffffffffffffffffffffffffffffffffffffffff1673ffffffffffffffffffffffffffffffffffffffff163373ffffffffffffffffffffffffffffffffffffffff16141515611a9657600080fd5b600073ffffffffffffffffffffffffffffffffffffffff168173ffffffffffffffffffffffffffffffffffffffff1614151515611ad257600080fd5b8073ffffffffffffffffffffffffffffffffffffffff166000809054906101000a900473ffffffffffffffffffffffffffffffffffffffff1673ffffffffffffffffffffffffffffffffffffffff167f8be0079c531659141344cd1fd0a4f28419497f9722a3daafe3b4186f6b6457e060405160405180910390a3806000806101000a81548173ffffffffffffffffffffffffffffffffffffffff021916908373ffffffffffffffffffffffffffffffffffffffff16021790555050565b60008183019050828110151515611ba357fe5b80905092915050565b600080831415611bbf5760009050611bde565b8183029050818382811515611bd057fe5b04141515611bda57fe5b8090505b92915050565b60008183811515611bf157fe5b04905092915050565b6000828211151515611c0857fe5b818303905092915050565b6101006040519081016040528060008152602001600073ffffffffffffffffffffffffffffffffffffffff16815260200160006003811115611c5157fe5b8152602001600081526020016000815260200160008152602001600081526020016000815250905600a165627a7a723058205bae06e47a098279a1a7e1797967393c58dc87476a9c95356d676c3bc78e48ea0029",
  "source": "pragma solidity ^0.4.23;\n\nimport \"./Escrow.sol\";\n// import 'github.com/OpenZeppelin/zeppelin-solidity/contracts/token/ERC20/StandardToken.sol';\n// import 'github.com/OpenZeppelin/zeppelin-solidity/contracts/ownership/Ownable.sol';\n// import 'github.com/OpenZeppelin/zeppelin-solidity/contracts/math/SafeMath.sol';\nimport \"../node_modules/zeppelin-solidity/contracts/token/ERC20/StandardToken.sol\";\nimport \"../node_modules/zeppelin-solidity/contracts/ownership/Ownable.sol\";\n\ncontract CanHire is Ownable {\n\n    using SafeMath for uint;\n\n    enum Status { Default, Open, Closed, Cancelled }\n\n    struct Post {\n        uint id;\n        address owner;\n        Status status;\n        uint bounty;\n        uint cost;\n        uint honeyPot;\n        uint numCandidates;\n        uint candidateSelected;\n        mapping(uint => bool) hasCandidate;\n        mapping(uint => address) recommenderOf;\n    }\n\n    /* mapping(address => bool) tokenOf; */\n    StandardToken public canYaCoin;\n    Escrow public escrow;\n\n    Post[] public posts;\n    uint public numPosts;\n    bool public active;\n    uint public cancellationFee = 1;\n\n    event PostCreated(uint postId);\n    event CandidateRecommended(uint postId, uint candidateId);\n    event EscrowUpdated(address escrowAddress);\n    event TokenStatusUpdate(address tokenAddress, bool status);\n    event PostStatusUpdate(uint postId, Status status);\n\n    modifier is_active(){\n        require(active);\n        _;\n    }\n\n    modifier is_post_owner(uint postId, address caller) {\n        require(caller == posts[postId].owner);\n        _;\n    }\n\n    modifier has_candidate(uint postId, uint candidateId) {\n        require(posts[postId].hasCandidate[candidateId]);\n        _;\n    }\n\n    modifier post_exist(uint postId) {\n        require(postId < numPosts);\n        _;\n    }\n\n    modifier post_is_open(uint postId) {\n        require(posts[postId].status == Status.Open);\n        _;\n    }\n\n    constructor(StandardToken _canYaCoin, Escrow _escrow) public {\n        canYaCoin = _canYaCoin;\n        escrow = _escrow;\n        setActive(true);\n    }\n\n    function checkPostHasCandidate(uint postId, uint candidateId) public view returns (bool hasCandidate) {\n        hasCandidate = posts[postId].hasCandidate[candidateId];\n    }\n\n    function getCandidateRecommender(uint postId, uint candidateId) public view returns (address recommender) {\n        recommender = posts[postId].recommenderOf[candidateId];\n    }\n\n    function setActive(bool isActive) public onlyOwner {\n        active = isActive;\n    }\n\n    function setCancellationFee(uint _cancellationFee) public onlyOwner {\n        cancellationFee = _cancellationFee;\n    }\n\n    function setEscrow(address newEscrow) public onlyOwner {\n        escrow = Escrow(newEscrow);\n        emit EscrowUpdated(newEscrow);\n    }\n\n    function addPost(uint _bounty, uint _cost) public is_active {\n        require(_bounty > 0);\n        require(canYaCoin.approve(address(escrow), _bounty));\n        require(escrow.transferToEscrow(msg.sender, _bounty));\n        Post memory newPost;\n        newPost.id = numPosts;\n        newPost.owner = msg.sender;\n        newPost.status = Status.Open;\n        newPost.bounty = _bounty;\n        newPost.cost = _cost;\n        newPost.honeyPot = _bounty;\n        posts.push(newPost);\n        numPosts = numPosts.add(1);\n        emit PostCreated(newPost.id);\n    }\n\n    function cancelPost(uint postId)\n        public\n        is_post_owner(postId, msg.sender)\n        post_is_open(postId)\n    {\n        Post storage post = posts[postId];\n        for(uint i = 0; i < post.numCandidates; i++) {\n            require(escrow.transferFromEscrow(post.recommenderOf[i], post.cost));\n        }\n        uint fee = post.bounty.mul(cancellationFee).div(100);\n        require(escrow.transferFromEscrow(address(this), fee));\n        require(escrow.transferFromEscrow(msg.sender, post.bounty.sub(fee)));\n        posts[postId].status = Status.Cancelled;\n        emit PostStatusUpdate(postId, Status.Cancelled);\n    }\n\n    function closePost(uint postId, uint candidateId)\n        public\n        is_post_owner(postId, msg.sender)\n        post_is_open(postId)\n    {\n        Post storage post = posts[postId];\n        require(post.hasCandidate[candidateId]);\n        require(post.recommenderOf[candidateId] != msg.sender);\n        require(escrow.transferFromEscrow(post.recommenderOf[candidateId], post.honeyPot));\n        post.candidateSelected = candidateId;\n        post.status = Status.Closed;\n        emit PostStatusUpdate(postId, Status.Closed);\n    }\n\n    function recommend(uint postId) public {\n        require(canYaCoin.approve(address(escrow), posts[postId].cost));\n        require(escrow.transferToEscrow(msg.sender, posts[postId].cost));\n        uint candidateId = posts[postId].numCandidates;\n        posts[postId].numCandidates++;\n        posts[postId].recommenderOf[candidateId] = msg.sender;\n        posts[postId].hasCandidate[candidateId] = true;\n        posts[postId].honeyPot = posts[postId].honeyPot.add(posts[postId].cost);\n        emit CandidateRecommended(postId, candidateId);\n    }\n\n}\n",
  "sourcePath": "/Users/freeyiyi1993/Downloads/canhire_v0/contracts/CanHire.sol",
  "compiler": {
    "name": "solc",
    "version": "0.4.23+commit.124ca40d.Emscripten.clang"
  },
  "schemaVersion": "2.0.0",
  "updatedAt": "2018-05-18T10:43:25.848Z"
}